:1000000032C144C143C142C141C140C13FC13EC1EF
:100010003DC13CC13BC13AC139C138C137C136C10C
:1000200035C1AED580A81FD300408D142000A0C8D4
:10003000DA02818FD9C2DB40A4A62EA1AF00000056
:100040000000000000002F00000000070007000073
:10005000147F147F1400242A7F2A1200626408137C
:100060002300364955225000000503000000001C03
:10007000224100000041221C000014083E08140028
:1000800008083E0808000000A060000008080808F2
:1000900008000060600000002010080402003E51CB
:1000A00049453E0000427F40000042615149460000
:1000B0002141454B31001814127F1000274545455A
:1000C00039003C4A494930000171090503003649AD
:1000D00049493600064949291E000036360000000D
:1000E00000563600000008142241000014141414B5
:1000F000140000412214080002015109060032498F
:1001000059513E007C1211127C007F49494936004A
:100110003E41414122007F4141221C007F49494923
:1001200041007F09090901003E4149497A007F08E1
:1001300008087F0000417F4100002040413F01004E
:100140007F08142241007F40404040007F020C02A3
:100150007F007F0408107F003E4141413E007F093F
:10016000090906003E4151215E007F091929460018
:1001700046494949310001017F0101003F404040AB
:100180003F001F2040201F003F4038403F006314C5
:1001900008146300070870080700615149454300CF
:1001A000007F41410000552A552A55000041417FFA
:1001B00000000402010204004040404040000001F1
:1001C000020400002054545478007F48444438000E
:1001D000384444442000384444487F003854545440
:1001E0001800087E0901020018A4A4A47C007F085E
:1001F0000404780000447D4000004080847D0000BD
:100200007F102844000000417F4000007C04180457
:1002100078007C0804047800384444443800FC2406
:100220002424180018242418FC007C080404080066
:10023000485454542000043F444020003C40402097
:100240007C001C2040201C003C4030403C004428E6
:10025000102844001CA0A0A07C004464544C44140A
:1002600014141414140011241FBECFE5D2E0DEBF15
:10027000CDBF10E0A0E6B0E0ECE0FBE002C00590EE
:100280000D92A03CB107D9F707D13EC4B9CE97B1C2
:10029000907F892B87B9369A3699FECF85B108951C
:1002A000CF92DF92EF92FF920F931F93CF93DF9342
:1002B000FC01EB0160E177E20AE010E09B01CB0179
:1002C000B80106D2C217D307C8F38AE0E82EF12C92
:1002D0008F013196CE01B901FBD1AE01481B590BFC
:1002E000CA01B901F5D1CB01B701F2D1805DD801C6
:1002F0008C936901C901B701EBD19B01BAE0CB1620
:10030000D10430F7C436D10510F480E28193108215
:10031000DF91CF911F910F91FF90EF90DF90CF90E1
:100320000895CF92DF92EF92FF92CF93C4E6C12C53
:10033000D12C760183E0ABDF682F70E080E090E0A5
:10034000D6D29B01AC01C701B601D7D16B017C01AC
:10035000CA9581F720E030E048EC52E432D220E048
:1003600030E44CE951E44FD320E030ED44E255E471
:10037000C3D12AE939E949E551EC23D28AD2DC011B
:10038000CB01CF91FF90EF90DF90CF90089598E050
:1003900087FF0AC0DE9ADC9ADC98880F9A95C1F72D
:1003A000DE9ADC9ADC980895DE98F5CFDE9ADC9A26
:1003B000DE98DC9888E7EBCFDE98DC9ADE9A089529
:1003C000CF93DF93F3DF80E0E2DFC2E2D0E0FE0113
:1003D0008491DDDF2196F0E0CD33DF07C1F7DF91B7
:1003E000CF91EACFCF93DF93C0EBE0DF80E0CFDFA8
:1003F0008C2FCDDF80E0CBDF80E1C9DFDDDFD6DF12
:1004000080E4C5DFD0E880E0C2DFDA95E1F7D4DF31
:10041000CF5FC83B51F7DF91CF910895CF93DF9322
:10042000C82FD62FC3DF80E0B2DF80EB8D0FAFDFA8
:100430008C2F82958F708061AADF8C2F8E708160E7
:10044000A6DFDF91CF91B8CF1F93CF93DF93C0EE9C
:10045000C80FACDF80E49BDF8C2FCC0F990B66E0DC
:1004600070E025D1EC01C35CDF4F16E0FE01849102
:100470008EDF115021961111F9CFDF91CF911F918D
:100480009BCFCF93DF93EC018991811103C0DF9162
:10049000CF910895D9DFF8CFCDB7DEB768970FB603
:1004A000F894DEBF0FBECDBF80ED8ABB17BA80E5E2
:1004B0008BBB18BA009887B18F7387B91C9A379A8B
:1004C00080E090E00BD39EEC980F933810F480936B
:1004D00060002FE38DE093E0215080409040E1F7F1
:1004E00000C000006DDF7EDF60E080E097DF81E626
:1004F00090E0C7DF63E080E091DF8FE690E0C1DF4E
:100500002FEB87E299E0215080409040E1F700C056
:10051000000068DF60E080E081DF8BE790E0B1DF22
:1005200063E080E07BDF8BE890E0ABDF63E080E4BA
:1005300075DF6091600070E0CE014196B1DECE01C2
:1005400041969FDFB09B0EC080916000843B50F4C9
:100550008F5F8093600087EA91E60197F1F700C012
:100560000000E4CFB19B06C080916000833310F09F
:100570008150EFCFB29BEFCF35DF6091600080E01C
:1005800090E0B4D22FE38DE093E021508040904082
:10059000E1F700C0000060E080E040DF86E990E025
:1005A00070DF63E080E03ADF8FE890E06ADF63E0CD
:1005B00080E234DFB6DE8C01BC01CE01099670DE2C
:1005C000CE0109965EDF84E1B82EC12CD12C7601D4
:1005D00082E05DDE682F70E080E090E088D19B01D2
:1005E000AC01C701B60189D06B017C01BA9481F7D7
:1005F00020E030E040EA51E4E4D020E030E44CE98F
:1006000051E401D246D1603D774058F4DF98EADEEC
:1006100060E080E003DF81EA90E033DFB29BFECF51
:100620006FCF809160000817110550F4DF9AB299DE
:1006300009C087EA91E60197F1F700C00000B7CF43
:10064000DF98F5CFDF989FE32DE083E091502040C5
:100650008040E1F700C00000C5DE60E080E0DEDE43
:1006600085EB90E00EDF63E080E0D8DE8FE890E07D
:1006700008DF63E080E2D2DE54DEBC01CE010196E9
:100680000FDECE010196FDDEB29907C087EA91E642
:100690000197F1F700C00000ECCF9FE32DE083E06D
:1006A000915020408040E1F700C0000029CF002495
:1006B000552704C0080E591F880F991F009729F06D
:1006C00076956795B8F37105B9F7802D952F089544
:1006D000AA1BBB1B51E107C0AA1FBB1FA617B70768
:1006E00010F0A61BB70B881F991F5A95A9F7809584
:1006F0009095BC01CD0108955058BB27AA270ED074
:1007000048C139D130F03ED120F031F49F3F11F48F
:100710001EF42EC10EF4E095E7FB24C1E92F4AD167
:1007200080F3BA17620773078407950718F071F40E
:100730009EF562C10EF4E0950B2EBA2FA02D0B0191
:10074000B90190010C01CA01A0011124FF27591B16
:1007500099F0593F50F4503E68F11A16F040A22F1C
:10076000232F342F4427585FF3CF4695379527958D
:10077000A795F0405395C9F77EF41F16BA0B620B8C
:10078000730B840BBAF09150A1F0FF0FBB1F661FD3
:10079000771F881FC2F70EC0BA0F621F731F841F16
:1007A00048F4879577956795B795F7959E3F08F03C
:1007B000B3CF9395880F08F09927EE0F97958795FB
:1007C00008950CD0E6C0DED040F0D5D030F021F452
:1007D0005F3F19F0C7C0511110C1CAC0EBD098F3E8
:1007E0009923C9F35523B1F3951B550BBB27AA27B2
:1007F00062177307840738F09F5F5F4F220F331F24
:10080000441FAA1FA9F333D00E2E3AF0E0E830D0EF
:1008100091505040E695001CCAF729D0FE2F27D0F2
:10082000660F771F881FBB1F261737074807AB07C0
:10083000B0E809F0BB0B802DBF01FF2793585F4F35
:100840002AF09E3F510568F08DC0D7C05F3FECF3A2
:10085000983EDCF3869577956795B795F7959F5FFA
:10086000C9F7880F911D9695879597F90895E1E04E
:10087000660F771F881FBB1F621773078407BA07AD
:1008800020F0621B730B840BBA0BEE1F88F7E09508
:10089000089598D088F09F5790F0B92F9927B751B5
:1008A000A0F0D1F0660F771F881F991F1AF0BA9534
:1008B000C9F712C0B13081F09FD0B1E008959CC05B
:1008C000672F782F8827B85F39F0B93FCCF386952A
:1008D00077956795B395D9F73EF490958095709587
:1008E00061957F4F8F4F9F4F0895E89409C097FB04
:1008F0003EF490958095709561957F4F8F4F9F4FF7
:100900009923A9F0F92F96E9BB279395F69587953A
:1009100077956795B795F111F8CFFAF4BB0F11F4FD
:1009200060FF1BC06F5F7F4F8F4F9F4F16C08823A4
:1009300011F096E911C0772321F09EE8872F762FDA
:1009400005C0662371F096E8862F70E060E02AF01B
:100950009A95660F771F881FDAF7880F9695879507
:1009600097F9089597F99F6780E870E060E008952F
:100970009FEF80EC089500240A94161617061806B7
:100980000906089500240A94121613061406050693
:100990000895092E0394000C11F4882352F0BB0F24
:1009A00040F4BF2B11F460FF04C06F5F7F4F8F4F87
:1009B0009F4F089557FD9058440F551F59F05F3FC2
:1009C00071F04795880F97FB991F61F09F3F79F071
:1009D00087950895121613061406551FF2CF4695F3
:1009E000F1DF08C0161617061806991FF1CF869575
:1009F0007105610508940895E894BB276627772759
:100A0000CB0197F908950AD0C4CFB5DF28F0BADF3B
:100A100018F0952309F0A6CFABCFEFCFCBDFA8F32B
:100A20009923D9F35523C9F3950F50E0551FAA27F1
:100A3000EE27FF27BB2700240894679520F4E20FD8
:100A4000F31FB41F0A1E220F331F441FAA1F6695EF
:100A5000A9F7779530F4F30FB41F0A1E121E08F49D
:100A60006395330F441FAA1F221F769599F7879528
:100A700020F4B40F0A1E121E631F440FAA1F221F68
:100A8000331F8695A9F7862F712D602D11249F574E
:100A900050408AF0E1F088234AF0EE0FFF1FBB1FA1
:100AA000661F771F881F91505040A9F79E3F510540
:100AB00070F058CFA2CF5F3FECF3983EDCF3869501
:100AC00077956795B795F795E7959F5FC1F7FE2BEB
:100AD000880F911D9695879597F90895E199FECF16
:100AE0009FBB8EBBE09A99278DB30895262FE1997D
:100AF000FECF1CBA9FBB8EBB2DBB0FB6F894E29AFB
:0C0B0000E19A0FBE01960895F894FFCF13
:100B0C003250434220486F7420506C61746500561B
:100B1C00657273696F6E20312E30005365742074CA
:100B2C00656D7065726174757265005365742054DF
:100B3C00656D703A200048656174696E672E2E2EC3
:100B4C0000566F6C7461676520697320746F6F2039
:100B5C006C6F772100436F6F6C696E672E2E2E00C1
:00000001FF
