:1000000032C144C143C142C141C140C13FC13EC1EF
:100010003DC13CC13BC13AC139C138C137C136C10C
:1000200035C1AED580A81FD300408D142000A0C8D4
:10003000DA02818FD9C2DB40A4A62EA1AF00000056
:100040000000000000002F00000000070007000073
:10005000147F147F1400242A7F2A1200626408137C
:100060002300364955225000000503000000001C03
:10007000224100000041221C000014083E08140028
:1000800008083E0808000000A060000008080808F2
:1000900008000060600000002010080402003E51CB
:1000A00049453E0000427F40000042615149460000
:1000B0002141454B31001814127F1000274545455A
:1000C00039003C4A494930000171090503003649AD
:1000D00049493600064949291E000036360000000D
:1000E00000563600000008142241000014141414B5
:1000F000140000412214080002015109060032498F
:1001000059513E007C1211127C007F49494936004A
:100110003E41414122007F4141221C007F49494923
:1001200041007F09090901003E4149497A007F08E1
:1001300008087F0000417F4100002040413F01004E
:100140007F08142241007F40404040007F020C02A3
:100150007F007F0408107F003E4141413E007F093F
:10016000090906003E4151215E007F091929460018
:1001700046494949310001017F0101003F404040AB
:100180003F001F2040201F003F4038403F006314C5
:1001900008146300070870080700615149454300CF
:1001A000007F41410000552A552A55000041417FFA
:1001B00000000402010204004040404040000001F1
:1001C000020400002054545478007F48444438000E
:1001D000384444442000384444487F003854545440
:1001E0001800087E0901020018A4A4A47C007F085E
:1001F0000404780000447D4000004080847D0000BD
:100200007F102844000000417F4000007C04180457
:1002100078007C0804047800384444443800FC2406
:100220002424180018242418FC007C080404080066
:10023000485454542000043F444020003C40402097
:100240007C001C2040201C003C4030403C004428E6
:10025000102844001CA0A0A07C004464544C44140A
:1002600014141414140011241FBECFE5D2E0DEBF15
:10027000CDBF11E0A0E6B0E0EEE4FEE002C00590E4
:100280000D92AE37B107D9F792D2DFC5B9CE97B18B
:10029000907F892B87B9369A3699FECF85B108951C
:1002A000EF92FF920F931F93CF93DF93FC01EB012B
:1002B00060E177E20AE010E09B01CB01B801A9D32D
:1002C000C217D307C8F38F013196CE01B901A1D36C
:1002D000AE01481B590BCA01B9019BD3CB016AE09F
:1002E00070E097D3805DD8018C937901C9016AE0F1
:1002F00070E08FD39B01BAE0EB16F10420F7C4360F
:10030000D10510F480E281931082DF91CF911F918B
:100310000F91FF90EF900895CF92DF92EF92FF92AE
:10032000CF93C4E6E12CF12C670183E0B0DF682FA6
:1003300070E080E090E07CD49B01AC01B601C70185
:100340007DD36B017C01C15081F720E030E048ECA7
:1003500052E4D8D320E030E44CE951E4F5D420E075
:1003600030ED44E255E469D32AE939E949E551EC35
:10037000C9D330D4CB01CF91FF90EF90DF90CF90D5
:100380000895CF92DF92EF92FF92CF93C4E1E12CD8
:10039000F12C670182E07BDF682F70E080E090E065
:1003A00047D49B01AC01B601C70148D36B017C0166
:1003B000C15081F720E030E040EA51E4A3D320E0CF
:1003C00030E44CE951E4C0D405D4CB01CF91FF9087
:1003D000EF90DF90CF9008950F931F93CF93DF930B
:1003E000CDB7DEB72E970FB6F894DEBF0FBECDBFE8
:1003F00089879A876B877C874D872E8778D160E0C5
:1004000080E091D189859A85C6D163E080E08BD167
:100410008B859C85C0D163E080E485D1F801608143
:1004200070E0CE0101963CDFCE010196B4D1B09BC5
:100430000FC0F8018081FE858F1750F48F5FF8019F
:10044000808387EA91E60197F1F700C00000E3CFCF
:10045000B19B07C0F8018081FD85F81710F4815029
:10046000EECFB29BEECF2E960FB6F894DEBF0FBE46
:10047000CDBFDF91CF911F910F910895FF920F9300
:100480001F93CF93DF93CDB7DEB729970FB6F894BC
:10049000DEBF0FBECDBF8C01F62E498728D1B099A3
:1004A000FECFB199FCCFB299FACF60E080E03BD1AA
:1004B000C80171D163E080E036D185E690E06BD170
:1004C00063E080E230D128DF8C01BC01CE010196CF
:1004D000E7DECE0101965FD154DF803D974058F4AE
:1004E000DF9805D160E080E01ED18CE690E053D12A
:1004F000B29BFECF16C00F15110580F4DF9AB2999A
:100500000FC08985811519F00F15110550F483EC82
:1005100099E00197F1F700C00000D2CFDF98EFCF4C
:10052000DF9829960FB6F894DEBF0FBECDBFDF91DE
:10053000CF911F910F91FF900895EF92FF920F932B
:100540001F93CF93DF93CDB7DEB729970FB6F894FB
:10055000DEBF0FBECDBF7C016987042FC8D0B09924
:10056000FECFB199FCCFB299FACF60E080E0DBD04A
:10057000C70111D162E080E0D6D080E890E00BD1D5
:1005800063E080E0D0D085E690E005D110E0011571
:10059000110561F163E080E2C6D0BEDE7C01BC01E2
:1005A000CE0101967DDECE010196F5D062E080E2BB
:1005B000BAD0B801CE01019673DECE010196EBD020
:1005C000E0DE803D974058F4DF9891D060E080E015
:1005D000AAD08CE690E0DFD0B29BFECF08C0898520
:1005E000E816F10488F4DF9AB29B10C0DF982996D0
:1005F0000FB6F894DEBF0FBECDBFDF91CF911F9134
:100600000F91FF90EF900895DF98EECF0150110900
:100610009FE32DE083E0915020408040E1F700C04F
:100620000000B5CFCF93DF93CDB7DEB728970FB6D5
:10063000F894DEBF0FBECDBF5AD0B099FECFB199AE
:10064000FCCFB299FACF60E080E06DD087E890E00F
:10065000A2D063E080E067D085E690E09CD063E0C4
:1006600080E261D059DEBC01CE01019619DECE01D7
:10067000019691D0B29907C083EC99E00197F1F708
:1006800000C00000ECCF28960FB6F894DEBF0FBE76
:10069000CDBFDF91CF91089598E087FF0AC0DE9A21
:1006A000DC9ADC98880F9150C1F7DE9ADC9ADC98CE
:1006B0000895DE98F5CFDE9ADC9ADE98DC9888E71C
:1006C000EBCFDE98DC9ADE9A0895CF93DF93F3DFC9
:1006D00080E0E2DFC2E2D0E0FE018491DDDF21961E
:1006E000F0E0CD33DF07C1F7DF91CF91EACFCF93B1
:1006F000DF93C0EBE0DF80E0CFDF8C2FCDDF80E049
:10070000CBDF80E1C9DFDDDFD6DF80E4C5DFD0E805
:1007100080E0C2DFD150E1F7D4DFCF5FC83B51F7B3
:10072000DF91CF910895CF93DF9300D0CDB7DEB79F
:100730008A836983C0DF80E0AFDF89818055ACDFC9
:100740008A8182958F708061A7DF8A818E70816037
:10075000A3DF0F900F90DF91CF91B3CF1F93CF9373
:10076000DF93C0EEC80FA7DF80E496DF8C2FCC0F9D
:10077000990B66E070E03CD1EC01C35CDF4F16E002
:10078000FE01849189DF115021961111F9CFDF917B
:10079000CF911F9196CFCF93DF93EC018881811188
:1007A00003C0DF91CF9108952196D8DFF7CF80ED78
:1007B0008ABB17BA80E58BBB18BA009887B18F73D4
:1007C00087B91C9A379A80E090E029D39EEC980F65
:1007D000933810F480936400E199FECF81E090E0BB
:1007E0001ED39EEC980F933810F480936300E19928
:1007F000FECF82E090E013D39EEC980F933810F474
:1008000080936200E199FECF83E090E008D396EFF9
:10081000980F913F10F4809361008CB3C82FC27081
:1008200081FDFBCF84E090E0FAD29FEF980F9C33DC
:1008300010F4809360002FE38DE093E0215080401E
:100840009040E1F700C0000040DF51DF60E080E051
:100850006ADF82E990E09FDF63E080E064DF80EAA6
:1008600090E099DF2FEB87E299E0215080409040A3
:10087000E1F700C00000D1E03ADF60E080E053DF44
:100880008CEA90E088DF62E088E04DDF89EB90E061
:1008900082DF63E088E047DF88EC90E07CDF62E0A5
:1008A00080E0C11116C03FDF83ED90E074DF63E0AC
:1008B00080E039DF85E890E06EDFB09902C0B19B3F
:1008C00012C0CD2787EA91E60197F1F700C000003A
:1008D000E6CF29DF85E890E05EDF63E080E023DF9C
:1008E00083ED90E0E9CFB29BEDCFC11509F461C073
:1008F000FEDEB099FECFB199FCCFB299FACF03E6F4
:1009000010E024EB42E365ED70E08FED90E064DDF4
:1009100001E610E02AEF4AE060EF70E08AEF90E035
:100920005BDD02E610E024EB42E365ED70E088E079
:1009300091E052DD00E610E02CE341E060EF70E072
:1009400088E191E049DD6091630081E090E06FD241
:10095000E199FECF6091610083E090E068D2E19977
:10096000FECF6091620082E090E061D2E199FECF1B
:100970006091600084E090E05AD241E060916300B1
:1009800088E291E07BDD409161006091630086E345
:1009900091E0D3DD41E06091620081E491E06EDDA1
:1009A000409160006091620086E591E0C6DD3ADE2C
:1009B00063CF9DDEB099FECFB199FCCF86B3C82F2F
:1009C000C47082FDF7CF04E610E024EB42E365ED4E
:1009D00070E083E691E000DD6091640080E090E0EB
:1009E00026D240E06091640083E791E047DDDFCFED
:1009F0000024552704C0080E591F880F991F00971F
:100A000029F076956795B8F37105B9F7802D952F84
:100A10000895AA1BBB1B51E107C0AA1FBB1FA61745
:100A2000B70710F0A61BB70B881F991F5A95A9F797
:100A300080959095BC01CD0108955058BB27AA27F9
:100A40000ED048C139D130F03ED120F031F49F3F73
:100A500011F41EF42EC10EF4E095E7FB24C1E92F3A
:100A60004AD180F3BA17620773078407950718F015
:100A700071F49EF562C10EF4E0950B2EBA2FA02DF5
:100A80000B01B90190010C01CA01A0011124FF273B
:100A9000591B99F0593F50F4503E68F11A16F04036
:100AA000A22F232F342F4427585FF3CF4695379535
:100AB0002795A795F0405395C9F77EF41F16BA0BFA
:100AC000620B730B840BBAF09150A1F0FF0FBB1FA8
:100AD000661F771F881FC2F70EC0BA0F621F731FF1
:100AE000841F48F4879577956795B795F7959E3F4E
:100AF00008F0B3CF9395880F08F09927EE0F9795DC
:100B0000879508950CD0E6C0DED040F0D5D030F007
:100B100021F45F3F19F0C7C0511110C1CAC0EBD01A
:100B200098F39923C9F35523B1F3951B550BBB27B4
:100B3000AA2762177307840738F09F5F5F4F220F61
:100B4000331F441FAA1FA9F333D00E2E3AF0E0E85A
:100B500030D091505040E695001CCAF729D0FE2FA6
:100B600027D0660F771F881FBB1F26173707480738
:100B7000AB07B0E809F0BB0B802DBF01FF279358EE
:100B80005F4F2AF09E3F510568F08DC0D7C05F3F90
:100B9000ECF3983EDCF3869577956795B795F795D6
:100BA0009F5FC9F7880F911D9695879597F90895CE
:100BB000E1E0660F771F881FBB1F6217730784076A
:100BC000BA0720F0621B730B840BBA0BEE1F88F779
:100BD000E095089598D088F09F5790F0B92F992705
:100BE000B751A0F0D1F0660F771F881F991F1AF038
:100BF000BA95C9F712C0B13081F09FD0B1E0089525
:100C00009CC0672F782F8827B85F39F0B93FCCF3A5
:100C1000869577956795B395D9F73EF4909580952D
:100C2000709561957F4F8F4F9F4F0895E89409C04D
:100C300097FB3EF490958095709561957F4F8F4F0F
:100C40009F4F9923A9F0F92F96E9BB279395F69525
:100C5000879577956795B795F111F8CFFAF4BB0FA3
:100C600011F460FF1BC06F5F7F4F8F4F9F4F16C007
:100C7000882311F096E911C0772321F09EE8872F91
:100C8000762F05C0662371F096E8862F70E060E04D
:100C90002AF09A95660F771F881FDAF7880F9695C6
:100CA000879597F9089597F99F6780E870E060E06D
:100CB00008959FEF80EC089500240A9416161706F5
:100CC00018060906089500240A941216130614063D
:100CD00005060895092E0394000C11F4882352F0A0
:100CE000BB0F40F4BF2B11F460FF04C06F5F7F4F58
:100CF0008F4F9F4F089557FD9058440F551F59F03F
:100D00005F3F71F04795880F97FB991F61F09F3FF8
:100D100079F087950895121613061406551FF2CF21
:100D20004695F1DF08C0161617061806991FF1CF71
:100D300086957105610508940895E894BB27662798
:100D40007727CB0197F908950AD0C4CFB5DF28F0F3
:100D5000BADF18F0952309F0A6CFABCFEFCFCBDFEA
:100D6000A8F39923D9F35523C9F3950F50E0551FE4
:100D7000AA27EE27FF27BB2700240894679520F4B5
:100D8000E20FF31FB41F0A1E220F331F441FAA1FB6
:100D90006695A9F7779530F4F30FB41F0A1E121E5B
:100DA00008F46395330F441FAA1F221F769599F705
:100DB000879520F4B40F0A1E121E631F440FAA1F4A
:100DC000221F331F8695A9F7862F712D602D1124C0
:100DD0009F5750408AF0E1F088234AF0EE0FFF1F42
:100DE000BB1F661F771F881F91505040A9F79E3F79
:100DF000510570F058CFA2CF5F3FECF3983EDCF383
:100E0000869577956795B795F795E7959F5FC1F7B5
:100E1000FE2B880F911D9695879597F90895E19976
:100E2000FECF9FBB8EBBE09A99278DB30895262FE6
:100E3000E199FECF1CBA9FBB8EBB2DBB0FB6F894B9
:0E0E4000E29AE19A0FBE01960895F894FFCF52
:100E4E000A1E64323254656D703A2000566F6C740F
:100E5E0061676520697320746F6F206C6F77210056
:100E6E0054696D653A2000436F6F6C696E672E2E64
:100E7E002E0050434220486F7420506C6174650000
:100E8E0056657273696F6E20322E300053656C6535
:100E9E006374206D6F64653A004E6F726D616C20E5
:100EAE0068656174696E6700486561742063757268
:100EBE007665003E005365742074656D703A00537C
:100ECE00657420707265686561742074656D70005C
:100EDE005365742074696D653A0053657420736FA1
:100EEE00616B2074696D6500536574207265666C64
:100EFE006F772074656D7000536574207265666C33
:100F0E006F772074696D65005072656865617469EC
:100F1E006E672E2E2E00536F616B696E672E2E2E0E
:100F2E000048656174696E6720746F207265666C27
:100F3E006F772E2E2E005265666C6F77696E672E58
:100F4E002E2E005365742074656D70657261747514
:0E0F5E0072650048656174696E672E2E2E0064
:00000001FF
